{
    "contractName": "Cyberswap",
    "abi": [
        {
            "inputs": [
                {
                    "internalType": "contract IERC20[]",
                    "name": "assets",
                    "type": "address[]"
                },
                {
                    "internalType": "string",
                    "name": "name",
                    "type": "string"
                },
                {
                    "internalType": "string",
                    "name": "symbol",
                    "type": "string"
                },
                {
                    "internalType": "address",
                    "name": "devAddr",
                    "type": "address"
                }
            ],
            "stateMutability": "nonpayable",
            "type": "constructor"
        },
        {
            "anonymous": false,
            "inputs": [
                {
                    "indexed": true,
                    "internalType": "address",
                    "name": "owner",
                    "type": "address"
                },
                {
                    "indexed": true,
                    "internalType": "address",
                    "name": "spender",
                    "type": "address"
                },
                {
                    "indexed": false,
                    "internalType": "uint256",
                    "name": "value",
                    "type": "uint256"
                }
            ],
            "name": "Approval",
            "type": "event"
        },
        {
            "anonymous": false,
            "inputs": [
                {
                    "indexed": true,
                    "internalType": "address",
                    "name": "account",
                    "type": "address"
                },
                {
                    "indexed": false,
                    "internalType": "uint256",
                    "name": "amount",
                    "type": "uint256"
                }
            ],
            "name": "Deposited",
            "type": "event"
        },
        {
            "anonymous": false,
            "inputs": [
                {
                    "indexed": true,
                    "internalType": "address",
                    "name": "previousOwner",
                    "type": "address"
                },
                {
                    "indexed": true,
                    "internalType": "address",
                    "name": "newOwner",
                    "type": "address"
                }
            ],
            "name": "OwnershipTransferred",
            "type": "event"
        },
        {
            "anonymous": false,
            "inputs": [
                {
                    "indexed": true,
                    "internalType": "address",
                    "name": "account",
                    "type": "address"
                },
                {
                    "indexed": true,
                    "internalType": "address",
                    "name": "src",
                    "type": "address"
                },
                {
                    "indexed": true,
                    "internalType": "address",
                    "name": "dst",
                    "type": "address"
                },
                {
                    "indexed": false,
                    "internalType": "uint256",
                    "name": "amount",
                    "type": "uint256"
                },
                {
                    "indexed": false,
                    "internalType": "uint256",
                    "name": "result",
                    "type": "uint256"
                },
                {
                    "indexed": false,
                    "internalType": "uint256",
                    "name": "srcBalance",
                    "type": "uint256"
                },
                {
                    "indexed": false,
                    "internalType": "uint256",
                    "name": "dstBalance",
                    "type": "uint256"
                },
                {
                    "indexed": false,
                    "internalType": "uint256",
                    "name": "totalSupply",
                    "type": "uint256"
                },
                {
                    "indexed": false,
                    "internalType": "address",
                    "name": "referral",
                    "type": "address"
                }
            ],
            "name": "Swapped",
            "type": "event"
        },
        {
            "anonymous": false,
            "inputs": [
                {
                    "indexed": true,
                    "internalType": "address",
                    "name": "from",
                    "type": "address"
                },
                {
                    "indexed": true,
                    "internalType": "address",
                    "name": "to",
                    "type": "address"
                },
                {
                    "indexed": false,
                    "internalType": "uint256",
                    "name": "value",
                    "type": "uint256"
                }
            ],
            "name": "Transfer",
            "type": "event"
        },
        {
            "anonymous": false,
            "inputs": [
                {
                    "indexed": true,
                    "internalType": "address",
                    "name": "account",
                    "type": "address"
                },
                {
                    "indexed": false,
                    "internalType": "uint256",
                    "name": "amount",
                    "type": "uint256"
                }
            ],
            "name": "Withdrawn",
            "type": "event"
        },
        {
            "inputs": [],
            "name": "BASE_SUPPLY",
            "outputs": [
                {
                    "internalType": "uint256",
                    "name": "",
                    "type": "uint256"
                }
            ],
            "stateMutability": "view",
            "type": "function"
        },
        {
            "inputs": [],
            "name": "FEE_DENOMINATOR",
            "outputs": [
                {
                    "internalType": "uint256",
                    "name": "",
                    "type": "uint256"
                }
            ],
            "stateMutability": "view",
            "type": "function"
        },
        {
            "inputs": [],
            "name": "REFERRAL_SHARE",
            "outputs": [
                {
                    "internalType": "uint256",
                    "name": "",
                    "type": "uint256"
                }
            ],
            "stateMutability": "view",
            "type": "function"
        },
        {
            "inputs": [
                {
                    "internalType": "address",
                    "name": "owner",
                    "type": "address"
                },
                {
                    "internalType": "address",
                    "name": "spender",
                    "type": "address"
                }
            ],
            "name": "allowance",
            "outputs": [
                {
                    "internalType": "uint256",
                    "name": "",
                    "type": "uint256"
                }
            ],
            "stateMutability": "view",
            "type": "function"
        },
        {
            "inputs": [
                {
                    "internalType": "address",
                    "name": "spender",
                    "type": "address"
                },
                {
                    "internalType": "uint256",
                    "name": "amount",
                    "type": "uint256"
                }
            ],
            "name": "approve",
            "outputs": [
                {
                    "internalType": "bool",
                    "name": "",
                    "type": "bool"
                }
            ],
            "stateMutability": "nonpayable",
            "type": "function"
        },
        {
            "inputs": [
                {
                    "internalType": "address",
                    "name": "account",
                    "type": "address"
                }
            ],
            "name": "balanceOf",
            "outputs": [
                {
                    "internalType": "uint256",
                    "name": "",
                    "type": "uint256"
                }
            ],
            "stateMutability": "view",
            "type": "function"
        },
        {
            "inputs": [],
            "name": "decayPeriod",
            "outputs": [
                {
                    "internalType": "uint256",
                    "name": "",
                    "type": "uint256"
                }
            ],
            "stateMutability": "pure",
            "type": "function"
        },
        {
            "inputs": [],
            "name": "decimals",
            "outputs": [
                {
                    "internalType": "uint8",
                    "name": "",
                    "type": "uint8"
                }
            ],
            "stateMutability": "view",
            "type": "function"
        },
        {
            "inputs": [
                {
                    "internalType": "address",
                    "name": "spender",
                    "type": "address"
                },
                {
                    "internalType": "uint256",
                    "name": "subtractedValue",
                    "type": "uint256"
                }
            ],
            "name": "decreaseAllowance",
            "outputs": [
                {
                    "internalType": "bool",
                    "name": "",
                    "type": "bool"
                }
            ],
            "stateMutability": "nonpayable",
            "type": "function"
        },
        {
            "inputs": [
                {
                    "internalType": "uint256[]",
                    "name": "amounts",
                    "type": "uint256[]"
                },
                {
                    "internalType": "uint256[]",
                    "name": "minAmounts",
                    "type": "uint256[]"
                }
            ],
            "name": "deposit",
            "outputs": [
                {
                    "internalType": "uint256",
                    "name": "fairSupply",
                    "type": "uint256"
                }
            ],
            "stateMutability": "payable",
            "type": "function"
        },
        {
            "inputs": [],
            "name": "devAddress",
            "outputs": [
                {
                    "internalType": "address",
                    "name": "",
                    "type": "address"
                }
            ],
            "stateMutability": "view",
            "type": "function"
        },
        {
            "inputs": [],
            "name": "factory",
            "outputs": [
                {
                    "internalType": "contract IFactory",
                    "name": "",
                    "type": "address"
                }
            ],
            "stateMutability": "view",
            "type": "function"
        },
        {
            "inputs": [],
            "name": "fee",
            "outputs": [
                {
                    "internalType": "uint256",
                    "name": "",
                    "type": "uint256"
                }
            ],
            "stateMutability": "view",
            "type": "function"
        },
        {
            "inputs": [
                {
                    "internalType": "contract IERC20",
                    "name": "token",
                    "type": "address"
                }
            ],
            "name": "getBalanceForAddition",
            "outputs": [
                {
                    "internalType": "uint256",
                    "name": "",
                    "type": "uint256"
                }
            ],
            "stateMutability": "view",
            "type": "function"
        },
        {
            "inputs": [
                {
                    "internalType": "contract IERC20",
                    "name": "token",
                    "type": "address"
                }
            ],
            "name": "getBalanceForRemoval",
            "outputs": [
                {
                    "internalType": "uint256",
                    "name": "",
                    "type": "uint256"
                }
            ],
            "stateMutability": "view",
            "type": "function"
        },
        {
            "inputs": [
                {
                    "internalType": "contract IERC20",
                    "name": "src",
                    "type": "address"
                },
                {
                    "internalType": "contract IERC20",
                    "name": "dst",
                    "type": "address"
                },
                {
                    "internalType": "uint256",
                    "name": "amount",
                    "type": "uint256"
                }
            ],
            "name": "getReturn",
            "outputs": [
                {
                    "internalType": "uint256",
                    "name": "",
                    "type": "uint256"
                }
            ],
            "stateMutability": "view",
            "type": "function"
        },
        {
            "inputs": [],
            "name": "getTokens",
            "outputs": [
                {
                    "internalType": "contract IERC20[]",
                    "name": "",
                    "type": "address[]"
                }
            ],
            "stateMutability": "view",
            "type": "function"
        },
        {
            "inputs": [
                {
                    "internalType": "address",
                    "name": "spender",
                    "type": "address"
                },
                {
                    "internalType": "uint256",
                    "name": "addedValue",
                    "type": "uint256"
                }
            ],
            "name": "increaseAllowance",
            "outputs": [
                {
                    "internalType": "bool",
                    "name": "",
                    "type": "bool"
                }
            ],
            "stateMutability": "nonpayable",
            "type": "function"
        },
        {
            "inputs": [
                {
                    "internalType": "contract IERC20",
                    "name": "",
                    "type": "address"
                }
            ],
            "name": "isToken",
            "outputs": [
                {
                    "internalType": "bool",
                    "name": "",
                    "type": "bool"
                }
            ],
            "stateMutability": "view",
            "type": "function"
        },
        {
            "inputs": [],
            "name": "name",
            "outputs": [
                {
                    "internalType": "string",
                    "name": "",
                    "type": "string"
                }
            ],
            "stateMutability": "view",
            "type": "function"
        },
        {
            "inputs": [],
            "name": "owner",
            "outputs": [
                {
                    "internalType": "address",
                    "name": "",
                    "type": "address"
                }
            ],
            "stateMutability": "view",
            "type": "function"
        },
        {
            "inputs": [],
            "name": "renounceOwnership",
            "outputs": [],
            "stateMutability": "nonpayable",
            "type": "function"
        },
        {
            "inputs": [
                {
                    "internalType": "contract IERC20",
                    "name": "token",
                    "type": "address"
                },
                {
                    "internalType": "uint256",
                    "name": "amount",
                    "type": "uint256"
                }
            ],
            "name": "rescueFunds",
            "outputs": [],
            "stateMutability": "nonpayable",
            "type": "function"
        },
        {
            "inputs": [
                {
                    "internalType": "contract IERC20",
                    "name": "src",
                    "type": "address"
                },
                {
                    "internalType": "contract IERC20",
                    "name": "dst",
                    "type": "address"
                },
                {
                    "internalType": "uint256",
                    "name": "amount",
                    "type": "uint256"
                },
                {
                    "internalType": "uint256",
                    "name": "minReturn",
                    "type": "uint256"
                },
                {
                    "internalType": "address",
                    "name": "referral",
                    "type": "address"
                }
            ],
            "name": "swap",
            "outputs": [
                {
                    "internalType": "uint256",
                    "name": "result",
                    "type": "uint256"
                }
            ],
            "stateMutability": "payable",
            "type": "function"
        },
        {
            "inputs": [],
            "name": "symbol",
            "outputs": [
                {
                    "internalType": "string",
                    "name": "",
                    "type": "string"
                }
            ],
            "stateMutability": "view",
            "type": "function"
        },
        {
            "inputs": [
                {
                    "internalType": "uint256",
                    "name": "",
                    "type": "uint256"
                }
            ],
            "name": "tokens",
            "outputs": [
                {
                    "internalType": "contract IERC20",
                    "name": "",
                    "type": "address"
                }
            ],
            "stateMutability": "view",
            "type": "function"
        },
        {
            "inputs": [],
            "name": "totalSupply",
            "outputs": [
                {
                    "internalType": "uint256",
                    "name": "",
                    "type": "uint256"
                }
            ],
            "stateMutability": "view",
            "type": "function"
        },
        {
            "inputs": [
                {
                    "internalType": "address",
                    "name": "recipient",
                    "type": "address"
                },
                {
                    "internalType": "uint256",
                    "name": "amount",
                    "type": "uint256"
                }
            ],
            "name": "transfer",
            "outputs": [
                {
                    "internalType": "bool",
                    "name": "",
                    "type": "bool"
                }
            ],
            "stateMutability": "nonpayable",
            "type": "function"
        },
        {
            "inputs": [
                {
                    "internalType": "address",
                    "name": "sender",
                    "type": "address"
                },
                {
                    "internalType": "address",
                    "name": "recipient",
                    "type": "address"
                },
                {
                    "internalType": "uint256",
                    "name": "amount",
                    "type": "uint256"
                }
            ],
            "name": "transferFrom",
            "outputs": [
                {
                    "internalType": "bool",
                    "name": "",
                    "type": "bool"
                }
            ],
            "stateMutability": "nonpayable",
            "type": "function"
        },
        {
            "inputs": [
                {
                    "internalType": "address",
                    "name": "newOwner",
                    "type": "address"
                }
            ],
            "name": "transferOwnership",
            "outputs": [],
            "stateMutability": "nonpayable",
            "type": "function"
        },
        {
            "inputs": [
                {
                    "internalType": "contract IERC20",
                    "name": "",
                    "type": "address"
                }
            ],
            "name": "virtualBalancesForAddition",
            "outputs": [
                {
                    "internalType": "uint216",
                    "name": "balance",
                    "type": "uint216"
                },
                {
                    "internalType": "uint40",
                    "name": "time",
                    "type": "uint40"
                }
            ],
            "stateMutability": "view",
            "type": "function"
        },
        {
            "inputs": [
                {
                    "internalType": "contract IERC20",
                    "name": "",
                    "type": "address"
                }
            ],
            "name": "virtualBalancesForRemoval",
            "outputs": [
                {
                    "internalType": "uint216",
                    "name": "balance",
                    "type": "uint216"
                },
                {
                    "internalType": "uint40",
                    "name": "time",
                    "type": "uint40"
                }
            ],
            "stateMutability": "view",
            "type": "function"
        },
        {
            "inputs": [
                {
                    "internalType": "contract IERC20",
                    "name": "",
                    "type": "address"
                }
            ],
            "name": "volumes",
            "outputs": [
                {
                    "internalType": "uint128",
                    "name": "confirmed",
                    "type": "uint128"
                },
                {
                    "internalType": "uint128",
                    "name": "result",
                    "type": "uint128"
                }
            ],
            "stateMutability": "view",
            "type": "function"
        },
        {
            "inputs": [
                {
                    "internalType": "uint256",
                    "name": "amount",
                    "type": "uint256"
                },
                {
                    "internalType": "uint256[]",
                    "name": "minReturns",
                    "type": "uint256[]"
                }
            ],
            "name": "withdraw",
            "outputs": [],
            "stateMutability": "nonpayable",
            "type": "function"
        }
    ],
    "bytecode": "60806040523480156200001157600080fd5b506040516200377d3803806200377d833981810160405260808110156200003757600080fd5b81019080805160405193929190846401000000008211156200005857600080fd5b9083019060208201858111156200006e57600080fd5b82518660208202830111640100000000821117156200008c57600080fd5b82525081516020918201928201910280838360005b83811015620000bb578181015183820152602001620000a1565b5050505090500160405260200180516040519392919084640100000000821115620000e557600080fd5b908301906020820185811115620000fb57600080fd5b82516401000000008111828201881017156200011657600080fd5b82525081516020918201929091019080838360005b83811015620001455781810151838201526020016200012b565b50505050905090810190601f168015620001735780820380516001836020036101000a031916815260200191505b50604052602001805160405193929190846401000000008211156200019757600080fd5b908301906020820185811115620001ad57600080fd5b8251640100000000811182820188101715620001c857600080fd5b82525081516020918201929091019080838360005b83811015620001f7578181015183820152602001620001dd565b50505050905090810190601f168015620002255780820380516001836020036101000a031916815260200191505b50604052602090810151855190935085925084916200024a9160039185019062000508565b5080516200026090600490602084019062000508565b50506005805460ff1916601217905550600160065560006200028162000504565b600780546001600160a01b0319166001600160a01b038316908117909155604051919250906000907f8be0079c531659141344cd1fd0a4f28419497f9722a3daafe3b4186f6b6457e0908290a350600083511162000326576040805162461bcd60e51b815260206004820152601860248201527f4379626572737761703a206e616d6520697320656d7074790000000000000000604482015290519081900360640190fd5b60008251116200037d576040805162461bcd60e51b815260206004820152601a60248201527f4379626572737761703a2073796d626f6c20697320656d707479000000000000604482015290519081900360640190fd5b8351600214620003d4576040805162461bcd60e51b815260206004820181905260248201527f4379626572737761703a206f6e6c79203220746f6b656e7320616c6c6f776564604482015290519081900360640190fd5b600880546001600160a01b0383166001600160a01b031991821617909155600980549091163317905583516200041290600a9060208701906200058d565b5060005b8451811015620004f957600b60008683815181106200043157fe5b6020908102919091018101516001600160a01b031682528101919091526040016000205460ff1615620004ab576040805162461bcd60e51b815260206004820152601b60248201527f4379626572737761703a206475706c696361746520746f6b656e730000000000604482015290519081900360640190fd5b6001600b6000878481518110620004be57fe5b6020908102919091018101516001600160a01b03168252810191909152604001600020805460ff191691151591909117905560010162000416565b50505050506200062b565b3390565b828054600181600116156101000203166002900490600052602060002090601f016020900481019282601f106200054b57805160ff19168380011785556200057b565b828001600101855582156200057b579182015b828111156200057b5782518255916020019190600101906200055e565b5062000589929150620005f3565b5090565b828054828255906000526020600020908101928215620005e5579160200282015b82811115620005e557825182546001600160a01b0319166001600160a01b03909116178255602090920191600190910190620005ae565b50620005899291506200060a565b5b80821115620005895760008155600101620005f4565b5b80821115620005895780546001600160a01b03191681556001016200060b565b613142806200063b6000396000f3fe6080604052600436106101f95760003560e01c80638da5cb5b1161010d578063c45a0155116100a0578063dd62ed3e1161006f578063dd62ed3e14610880578063ddca3f43146108bb578063e7ff42c9146108d0578063f223885a14610903578063f2fde38b146109c5576101f9565b8063c45a0155146107df578063d5bcb9b5146107f4578063d73792a914610838578063d7d3aab51461084d576101f9565b8063aa6ca808116100dc578063aa6ca808146106ee578063b1ec4c4014610753578063b21b5a21146107b5578063baf13a0a146107ca576101f9565b80638da5cb5b1461065257806395d89b4114610667578063a457c2d71461067c578063a9059cbb146106b5576101f9565b80633ad10ef6116101905780635ed9156d1161015f5780635ed9156d146105425780636edc2c091461059e57806370a08231146105d1578063715018a61461060457806378e3214f14610619576101f9565b80633ad10ef61461041957806348d67e1b1461044a5780634f64b2be1461045f5780635915d80614610489576101f9565b80631e1401f8116101cc5780631e1401f81461032f57806323b872dd14610372578063313ce567146103b557806339509351146103e0576101f9565b806306fdde03146101fe578063095ea7b31461028857806318160ddd146102d557806319f37361146102fc575b600080fd5b34801561020a57600080fd5b506102136109f8565b6040805160208082528351818301528351919283929083019185019080838360005b8381101561024d578181015183820152602001610235565b50505050905090810190601f16801561027a5780820380516001836020036101000a031916815260200191505b509250505060405180910390f35b34801561029457600080fd5b506102c1600480360360408110156102ab57600080fd5b506001600160a01b038135169060200135610a8e565b604080519115158252519081900360200190f35b3480156102e157600080fd5b506102ea610aac565b60408051918252519081900360200190f35b34801561030857600080fd5b506102c16004803603602081101561031f57600080fd5b50356001600160a01b0316610ab2565b34801561033b57600080fd5b506102ea6004803603606081101561035257600080fd5b506001600160a01b03813581169160208101359091169060400135610ac7565b34801561037e57600080fd5b506102c16004803603606081101561039557600080fd5b506001600160a01b03813581169160208101359091169060400135610aee565b3480156103c157600080fd5b506103ca610b75565b6040805160ff9092168252519081900360200190f35b3480156103ec57600080fd5b506102c16004803603604081101561040357600080fd5b506001600160a01b038135169060200135610b7e565b34801561042557600080fd5b5061042e610bcc565b604080516001600160a01b039092168252519081900360200190f35b34801561045657600080fd5b506102ea610bdb565b34801561046b57600080fd5b5061042e6004803603602081101561048257600080fd5b5035610be1565b34801561049557600080fd5b50610540600480360360408110156104ac57600080fd5b813591908101906040810160208201356401000000008111156104ce57600080fd5b8201836020820111156104e057600080fd5b8035906020019184602083028401116401000000008311171561050257600080fd5b919080806020026020016040519081016040528093929190818152602001838360200280828437600092019190915250929550610c08945050505050565b005b34801561054e57600080fd5b506105756004803603602081101561056557600080fd5b50356001600160a01b0316610def565b604080516001600160d81b03909316835264ffffffffff90911660208301528051918290030190f35b3480156105aa57600080fd5b50610575600480360360208110156105c157600080fd5b50356001600160a01b0316610e1a565b3480156105dd57600080fd5b506102ea600480360360208110156105f457600080fd5b50356001600160a01b0316610e45565b34801561061057600080fd5b50610540610e64565b34801561062557600080fd5b506105406004803603604081101561063c57600080fd5b506001600160a01b038135169060200135610f18565b34801561065e57600080fd5b5061042e61116e565b34801561067357600080fd5b5061021361117d565b34801561068857600080fd5b506102c16004803603604081101561069f57600080fd5b506001600160a01b0381351690602001356111de565b3480156106c157600080fd5b506102c1600480360360408110156106d857600080fd5b506001600160a01b038135169060200135611246565b3480156106fa57600080fd5b5061070361125a565b60408051602080825283518183015283519192839290830191858101910280838360005b8381101561073f578181015183820152602001610727565b505050509050019250505060405180910390f35b34801561075f57600080fd5b506107866004803603602081101561077657600080fd5b50356001600160a01b03166112bb565b60405180836001600160801b03168152602001826001600160801b031681526020019250505060405180910390f35b3480156107c157600080fd5b506102ea6112e1565b3480156107d657600080fd5b506102ea6112e6565b3480156107eb57600080fd5b5061042e6112ec565b6102ea600480360360a081101561080a57600080fd5b506001600160a01b0381358116916020810135821691604082013591606081013591608090910135166112fb565b34801561084457600080fd5b506102ea61183c565b34801561085957600080fd5b506102ea6004803603602081101561087057600080fd5b50356001600160a01b0316611848565b34801561088c57600080fd5b506102ea600480360360408110156108a357600080fd5b506001600160a01b03813581169160200135166118bf565b3480156108c757600080fd5b506102ea6118ea565b3480156108dc57600080fd5b506102ea600480360360208110156108f357600080fd5b50356001600160a01b0316611960565b6102ea6004803603604081101561091957600080fd5b81019060208101813564010000000081111561093457600080fd5b82018360208201111561094657600080fd5b8035906020019184602083028401116401000000008311171561096857600080fd5b91939092909160208101903564010000000081111561098657600080fd5b82018360208201111561099857600080fd5b803590602001918460208302840111640100000000831117156109ba57600080fd5b5090925090506119d0565b3480156109d157600080fd5b50610540600480360360208110156109e857600080fd5b50356001600160a01b031661205e565b60038054604080516020601f6002600019610100600188161502019095169490940493840181900481028201810190925282815260609390929091830182828015610a845780601f10610a5957610100808354040283529160200191610a84565b820191906000526020600020905b815481529060010190602001808311610a6757829003601f168201915b5050505050905090565b6000610aa2610a9b612169565b848461216d565b5060015b92915050565b60025490565b600b6020526000908152604090205460ff1681565b6000610ae6848484610ad888611848565b610ae188611960565b612259565b949350505050565b6000610afb848484612318565b610b6b84610b07612169565b610b668560405180606001604052806028815260200161302c602891396001600160a01b038a16600090815260016020526040812090610b45612169565b6001600160a01b031681526020810191909152604001600020549190612473565b61216d565b5060019392505050565b60055460ff1690565b6000610aa2610b8b612169565b84610b668560016000610b9c612169565b6001600160a01b03908116825260208083019390935260409182016000908120918c16815292529020549061250a565b6008546001600160a01b031681565b61012c90565b600a8181548110610bee57fe5b6000918252602090912001546001600160a01b0316905081565b60026006541415610c4e576040805162461bcd60e51b815260206004820152601f6024820152600080516020612f5b833981519152604482015290519081900360640190fd5b60026006556000610c5d610aac565b9050610c693384612564565b60005b600a54811015610dae576000600a8281548110610c8557fe5b60009182526020822001546001600160a01b03169150610ca58230612660565b90506000610cbd85610cb7848a612701565b9061275a565b9050610cd36001600160a01b038416338361279c565b855184101580610cf65750858481518110610cea57fe5b60200260200101518110155b610d47576040805162461bcd60e51b815260206004820152601f60248201527f4379626572737761703a20726573756c74206973206e6f7420656e6f75676800604482015290519081900360640190fd5b610d7582610d55878a612805565b6001600160a01b0386166000908152600d60205260409020919088612847565b610da382610d83878a612805565b6001600160a01b0386166000908152600e60205260409020919088612847565b505050600101610c6c565b5060408051848152905133917f7084f5476618d8e60b11ef0d7d3f06914655adb8793e28ff7f018d4c76d505d5919081900360200190a25050600160065550565b600e602052600090815260409020546001600160d81b03811690600160d81b900464ffffffffff1682565b600d602052600090815260409020546001600160d81b03811690600160d81b900464ffffffffff1682565b6001600160a01b0381166000908152602081905260409020545b919050565b610e6c612169565b6007546001600160a01b03908116911614610ece576040805162461bcd60e51b815260206004820181905260248201527f4f776e61626c653a2063616c6c6572206973206e6f7420746865206f776e6572604482015290519081900360640190fd5b6007546040516000916001600160a01b0316907f8be0079c531659141344cd1fd0a4f28419497f9722a3daafe3b4186f6b6457e0908390a3600780546001600160a01b0319169055565b60026006541415610f5e576040805162461bcd60e51b815260206004820152601f6024820152600080516020612f5b833981519152604482015290519081900360640190fd5b6002600655610f6b612169565b6007546001600160a01b03908116911614610fcd576040805162461bcd60e51b815260206004820181905260248201527f4f776e61626c653a2063616c6c6572206973206e6f7420746865206f776e6572604482015290519081900360640190fd5b600a5460609067ffffffffffffffff81118015610fe957600080fd5b50604051908082528060200260200182016040528015611013578160200160208202803683370190505b50905060005b815181101561106d5761104e30600a838154811061103357fe5b6000918252602090912001546001600160a01b031690612660565b82828151811061105a57fe5b6020908102919091010152600101611019565b506110826001600160a01b038416338461279c565b60005b81518110156111095781818151811061109a57fe5b60200260200101516110b330600a848154811061103357fe5b1015611101576040805162461bcd60e51b815260206004820152601860248201527710de58995c9cddd85c0e881858d8d95cdcc819195b9a595960421b604482015290519081900360640190fd5b600101611085565b506103e861111630610e45565b1015611164576040805162461bcd60e51b815260206004820152601860248201527710de58995c9cddd85c0e881858d8d95cdcc819195b9a595960421b604482015290519081900360640190fd5b5050600160065550565b6007546001600160a01b031690565b60048054604080516020601f6002600019610100600188161502019095169490940493840181900481028201810190925282815260609390929091830182828015610a845780601f10610a5957610100808354040283529160200191610a84565b6000610aa26111eb612169565b84610b66856040518060600160405280602581526020016130e86025913960016000611215612169565b6001600160a01b03908116825260208083019390935260409182016000908120918d16815292529020549190612473565b6000610aa2611253612169565b8484612318565b6060600a805480602002602001604051908101604052809291908181526020018280548015610a8457602002820191906000526020600020905b81546001600160a01b03168152600190910190602001808311611294575050505050905090565b600c602052600090815260409020546001600160801b0380821691600160801b90041682565b601481565b6103e881565b6009546001600160a01b031681565b600060026006541415611343576040805162461bcd60e51b815260206004820152601f6024820152600080516020612f5b833981519152604482015290519081900360640190fd5b600260065561135a6001600160a01b0387166128a3565b611365576000611367565b835b34146113ba576040805162461bcd60e51b815260206004820152601c60248201527f4379626572737761703a2077726f6e672076616c756520757361676500000000604482015290519081900360640190fd5b6113c2612f1d565b60405180604001604052806114086113e28a6001600160a01b03166128a3565b6113ed5760006113ef565b345b6114026001600160a01b038c1630612660565b90612805565b81526020016114206001600160a01b03891630612660565b905280516001600160a01b0389166000908152600d602090815260408083208151808301909252546001600160d81b0381168252600160d81b900464ffffffffff1691810191909152929350916114829161147b91906128b0565b8351612911565b6020838101516001600160a01b038a166000908152600e835260408082208151808301909252546001600160d81b0381168252600160d81b900464ffffffffff16938101939093529293506114e4916114da916128b0565b8460200151612928565b90506114f96001600160a01b038a1688612937565b8251600090611515906114026001600160a01b038d1630612660565b90506115248a8a838686612259565b94506000851180156115365750868510155b611587576040805162461bcd60e51b815260206004820152601f60248201527f4379626572737761703a2072657475726e206973206e6f7420656e6f75676800604482015290519081900360640190fd5b61159b6001600160a01b038a16338761279c565b835183146115ce576115ce6115b0848361250a565b6001600160a01b038c166000908152600d60205260409020906129fe565b83602001518214611604576116046115e68387612805565b6001600160a01b038b166000908152600e60205260409020906129fe565b83516001600160a01b038b166000908152600e6020526040902061162791612a2a565b6020808501516001600160a01b038b166000908152600d909252604090912061164f91612a2a565b60006001600160a01b03871615611667575085611686565b6008546001600160a01b03161561168657506008546001600160a01b03165b6001600160a01b038116156117415784516ec097ce7bc90715b34b9f1000000000906116c090610cb76116b9828761250a565b8490612701565b60208701519091506116d990610cb76116b9828b612805565b90506ec097ce7bc90715b34b9f100000000081111561173f57600061172b6014610cb7670de0b6b3a7640000610cb7611710610aac565b611725670de0b6b3a76400006114028a612a65565b90612701565b9050801561173d5761173d8982612abf565b505b505b896001600160a01b03168b6001600160a01b0316336001600160a01b03167f86c49b5d8577da08444947f1427d23ef191cfabf2c0788f93324d79e926a9302858a8a600001518b60200151611794610aac565b60408051958652602086019490945284840192909252606084015260808301526001600160a01b03871660a0830152519081900360c00190a4506001600160a01b039099166000908152600c602052604090208054600160801b6001600160801b03808316909c018c166fffffffffffffffffffffffffffffffff19909216919091178181048c1687018c169091029a16999099179098555050600160065595945050505050565b670de0b6b3a764000081565b60008061185e6001600160a01b03841630612660565b6001600160a01b0384166000908152600d60209081526040918290208251808401909352546001600160d81b0381168352600160d81b900464ffffffffff16908201529091506118b8906118b290836128b0565b82612911565b9392505050565b6001600160a01b03918216600090815260016020908152604080832093909416825291909152205490565b6009546040805163ddca3f4360e01b815290516000926001600160a01b03169163ddca3f43916004808301926020929190829003018186803b15801561192f57600080fd5b505afa158015611943573d6000803e3d6000fd5b505050506040513d602081101561195957600080fd5b5051905090565b6000806119766001600160a01b03841630612660565b6001600160a01b0384166000908152600e60209081526040918290208251808401909352546001600160d81b0381168352600160d81b900464ffffffffff16908201529091506118b8906119ca90836128b0565b82612928565b600060026006541415611a18576040805162461bcd60e51b815260206004820152601f6024820152600080516020612f5b833981519152604482015290519081900360640190fd5b6002600655600a80546040805160208084028201810190925282815260609390929091830182828015611a7457602002820191906000526020600020905b81546001600160a01b03168152600190910190602001808311611a56575b5050505050905080518686905014611ad3576040805162461bcd60e51b815260206004820152601f60248201527f4379626572737761703a2077726f6e6720616d6f756e7473206c656e67746800604482015290519081900360640190fd5b611af981600081518110611ae357fe5b60200260200101516001600160a01b03166128a3565b611b3257611b0d81600181518110611ae357fe5b611b18576000611b2d565b85856001818110611b2557fe5b905060200201355b611b47565b85856000818110611b3f57fe5b905060200201355b3414611b9a576040805162461bcd60e51b815260206004820152601c60248201527f4379626572737761703a2077726f6e672076616c756520757361676500000000604482015290519081900360640190fd5b60608567ffffffffffffffff81118015611bb357600080fd5b50604051908082528060200260200182016040528015611bdd578160200160208202803683370190505b50905060005b8151811015611c5957611c3a611bfe848381518110611ae357fe5b611c09576000611c0b565b345b61140230868581518110611c1b57fe5b60200260200101516001600160a01b031661266090919063ffffffff16565b828281518110611c4657fe5b6020908102919091010152600101611be3565b506000611c64610aac565b905080611cbd57611c786103e86063612701565b9350611c86306103e8612abf565b60005b87811015611cb757611cad858a8a84818110611ca157fe5b90506020020135612911565b9450600101611c89565b50611d1e565b600019935060005b87811015611d1c57611d1285611d0d858481518110611ce057fe5b6020026020010151610cb78d8d87818110611cf757fe5b905060200201358761270190919063ffffffff16565b612928565b9450600101611cc5565b505b8360005b88811015611eed5760008a8a83818110611d3857fe5b9050602002013511611d91576040805162461bcd60e51b815260206004820152601960248201527f4379626572737761703a20616d6f756e74206973207a65726f00000000000000604482015290519081900360640190fd5b60008315611dd557611dd084610cb760018703611dca878a8881518110611db457fe5b602002602001015161270190919063ffffffff16565b9061250a565b611de9565b8a8a83818110611de157fe5b905060200201355b9050888883818110611df757fe5b90506020020135811015611e52576040805162461bcd60e51b815260206004820181905260248201527f4379626572737761703a206d696e416d6f756e74206e6f742072656163686564604482015290519081900360640190fd5b611e8181878481518110611e6257fe5b60200260200101516001600160a01b031661293790919063ffffffff16565b8315611ee4576000611eb0868481518110611e9857fe5b6020026020010151611402308a8781518110611c1b57fe5b9050611ee088611d0d888681518110611ec557fe5b6020026020010151610cb7858a61270190919063ffffffff16565b9750505b50600101611d22565b508115611fb75760005b88811015611fb557611f72848281518110611f0e57fe5b6020026020010151611f29888661250a90919063ffffffff16565b85600e60008a8781518110611f3a57fe5b60200260200101516001600160a01b03166001600160a01b03168152602001908152602001600020612847909392919063ffffffff16565b611fad848281518110611f8157fe5b6020026020010151611f9c888661250a90919063ffffffff16565b85600d60008a8781518110611f3a57fe5b600101611ef7565b505b6000851161200c576040805162461bcd60e51b815260206004820152601f60248201527f4379626572737761703a20726573756c74206973206e6f7420656e6f75676800604482015290519081900360640190fd5b6120163386612abf565b60408051868152905133917f2da466a7b24304f47e87fa2e1e5a81b9831ce54fec19055ce277ca2f39ba42c4919081900360200190a250506001600655509095945050505050565b612066612169565b6007546001600160a01b039081169116146120c8576040805162461bcd60e51b815260206004820181905260248201527f4f776e61626c653a2063616c6c6572206973206e6f7420746865206f776e6572604482015290519081900360640190fd5b6001600160a01b03811661210d5760405162461bcd60e51b8152600401808060200182810382526026815260200180612f9d6026913960400191505060405180910390fd5b6007546040516001600160a01b038084169216907f8be0079c531659141344cd1fd0a4f28419497f9722a3daafe3b4186f6b6457e090600090a3600780546001600160a01b0319166001600160a01b0392909216919091179055565b3390565b6001600160a01b0383166121b25760405162461bcd60e51b815260040180806020018281038252602481526020018061309a6024913960400191505060405180910390fd5b6001600160a01b0382166121f75760405162461bcd60e51b8152600401808060200182810382526022815260200180612fc36022913960400191505060405180910390fd5b6001600160a01b03808416600081815260016020908152604080832094871680845294825291829020859055815185815291517f8c5be1e5ebec7d5bd14f71427d1e84f3dd0314c0f7b2291e5b200ac8c7c3b9259281900390910190a3505050565b6001600160a01b0385166000908152600b602052604081205460ff16801561229957506001600160a01b0385166000908152600b602052604090205460ff165b80156122b75750846001600160a01b0316866001600160a01b031614155b80156122c35750600084115b1561230f5760006122f26122eb670de0b6b3a7640000610cb76122e46118ea565b8990612701565b8690612805565b905061230b612301858361250a565b610cb78386612701565b9150505b95945050505050565b6001600160a01b03831661235d5760405162461bcd60e51b81526004018080602001828103825260258152602001806130756025913960400191505060405180910390fd5b6001600160a01b0382166123a25760405162461bcd60e51b8152600401808060200182810382526023815260200180612f386023913960400191505060405180910390fd5b6123ad838383612800565b6123ea81604051806060016040528060268152602001612fe5602691396001600160a01b0386166000908152602081905260409020549190612473565b6001600160a01b038085166000908152602081905260408082209390935590841681522054612419908261250a565b6001600160a01b038084166000818152602081815260409182902094909455805185815290519193928716927fddf252ad1be2c89b69c2b068fc378daa952ba7f163c4a11628f55a4df523b3ef92918290030190a3505050565b600081848411156125025760405162461bcd60e51b81526004018080602001828103825283818151815260200191508051906020019080838360005b838110156124c75781810151838201526020016124af565b50505050905090810190601f1680156124f45780820380516001836020036101000a031916815260200191505b509250505060405180910390fd5b505050900390565b6000828201838110156118b8576040805162461bcd60e51b815260206004820152601b60248201527f536166654d6174683a206164646974696f6e206f766572666c6f770000000000604482015290519081900360640190fd5b6001600160a01b0382166125a95760405162461bcd60e51b81526004018080602001828103825260218152602001806130546021913960400191505060405180910390fd5b6125b582600083612800565b6125f281604051806060016040528060228152602001612f7b602291396001600160a01b0385166000908152602081905260409020549190612473565b6001600160a01b0383166000908152602081905260409020556002546126189082612805565b6002556040805182815290516000916001600160a01b038516917fddf252ad1be2c89b69c2b068fc378daa952ba7f163c4a11628f55a4df523b3ef9181900360200190a35050565b600061266b836128a3565b1561268157506001600160a01b03811631610aa6565b826001600160a01b03166370a08231836040518263ffffffff1660e01b815260040180826001600160a01b0316815260200191505060206040518083038186803b1580156126ce57600080fd5b505afa1580156126e2573d6000803e3d6000fd5b505050506040513d60208110156126f857600080fd5b50519050610aa6565b60008261271057506000610aa6565b8282028284828161271d57fe5b04146118b85760405162461bcd60e51b815260040180806020018281038252602181526020018061300b6021913960400191505060405180910390fd5b60006118b883836040518060400160405280601a81526020017f536166654d6174683a206469766973696f6e206279207a65726f000000000000815250612baf565b8015612800576127ab836128a3565b156127ec576040516001600160a01b0383169082156108fc029083906000818181858888f193505050501580156127e6573d6000803e3d6000fd5b50612800565b6128006001600160a01b0384168383612c14565b505050565b60006118b883836040518060400160405280601e81526020017f536166654d6174683a207375627472616374696f6e206f766572666c6f770000815250612473565b61289d8461289883610cb761285d826001612805565b604080518082019091528a546001600160d81b0381168252600160d81b900464ffffffffff166020820152611dca908990611725908c6128b0565b6129fe565b50505050565b6001600160a01b03161590565b6000806128d761012c611d0d866020015164ffffffffff164261280590919063ffffffff16565b905060006128e761012c83612805565b905061230f61012c610cb76128fc8786612701565b8851611dca906001600160d81b031686612701565b60008183101561292157816118b8565b5090919050565b600081831061292157816118b8565b80156129fa57612946826128a3565b156129e557803410156129a0576040805162461bcd60e51b815260206004820152601a60248201527f556e6945524332303a206e6f7420656e6f7567682076616c7565000000000000604482015290519081900360640190fd5b803411156129e057336108fc6129b63484612805565b6040518115909202916000818181858888f193505050501580156129de573d6000803e3d6000fd5b505b6129fa565b6129fa6001600160a01b038316333084612c66565b5050565b81546001600160d81b0319166001600160d81b039182161716600160d81b4264ffffffffff1602179055565b6040805180820190915282546001600160d81b0381168252600160d81b900464ffffffffff1660208201526129fa90839061289890846128b0565b60006003821115612aa95781600160028204015b81811015612aa157809150600281828681612a9057fe5b040181612a9957fe5b049050612a79565b509050610e5f565b8115612ab757506001610e5f565b506000610e5f565b6001600160a01b038216612b1a576040805162461bcd60e51b815260206004820152601f60248201527f45524332303a206d696e7420746f20746865207a65726f206164647265737300604482015290519081900360640190fd5b612b2660008383612800565b600254612b33908261250a565b6002556001600160a01b038216600090815260208190526040902054612b59908261250a565b6001600160a01b0383166000818152602081815260408083209490945583518581529351929391927fddf252ad1be2c89b69c2b068fc378daa952ba7f163c4a11628f55a4df523b3ef9281900390910190a35050565b60008183612bfe5760405162461bcd60e51b81526020600482018181528351602484015283519092839260449091019190850190808383600083156124c75781810151838201526020016124af565b506000838581612c0a57fe5b0495945050505050565b604080516001600160a01b038416602482015260448082018490528251808303909101815260649091019091526020810180516001600160e01b031663a9059cbb60e01b179052612800908490612cbc565b604080516001600160a01b0380861660248301528416604482015260648082018490528251808303909101815260849091019091526020810180516001600160e01b03166323b872dd60e01b17905261289d9085905b6060612d11826040518060400160405280602081526020017f5361666545524332303a206c6f772d6c6576656c2063616c6c206661696c6564815250856001600160a01b0316612d6d9092919063ffffffff16565b80519091501561280057808060200190516020811015612d3057600080fd5b50516128005760405162461bcd60e51b815260040180806020018281038252602a8152602001806130be602a913960400191505060405180910390fd5b6060610ae684846000856060612d8285612ee4565b612dd3576040805162461bcd60e51b815260206004820152601d60248201527f416464726573733a2063616c6c20746f206e6f6e2d636f6e7472616374000000604482015290519081900360640190fd5b60006060866001600160a01b031685876040518082805190602001908083835b60208310612e125780518252601f199092019160209182019101612df3565b6001836020036101000a03801982511681845116808217855250505050505090500191505060006040518083038185875af1925050503d8060008114612e74576040519150601f19603f3d011682016040523d82523d6000602084013e612e79565b606091505b50915091508115612e8d579150610ae69050565b805115612e9d5780518082602001fd5b60405162461bcd60e51b81526020600482018181528651602484015286518793919283926044019190850190808383600083156124c75781810151838201526020016124af565b6000813f7fc5d2460186f7233c927e7db2dcc703c0e500b653ca82273b7bfad8045d85a470818114801590610ae6575050151592915050565b60405180604001604052806000815260200160008152509056fe45524332303a207472616e7366657220746f20746865207a65726f20616464726573735265656e7472616e637947756172643a207265656e7472616e742063616c6c0045524332303a206275726e20616d6f756e7420657863656564732062616c616e63654f776e61626c653a206e6577206f776e657220697320746865207a65726f206164647265737345524332303a20617070726f766520746f20746865207a65726f206164647265737345524332303a207472616e7366657220616d6f756e7420657863656564732062616c616e6365536166654d6174683a206d756c7469706c69636174696f6e206f766572666c6f7745524332303a207472616e7366657220616d6f756e74206578636565647320616c6c6f77616e636545524332303a206275726e2066726f6d20746865207a65726f206164647265737345524332303a207472616e736665722066726f6d20746865207a65726f206164647265737345524332303a20617070726f76652066726f6d20746865207a65726f20616464726573735361666545524332303a204552433230206f7065726174696f6e20646964206e6f74207375636365656445524332303a2064656372656173656420616c6c6f77616e63652062656c6f77207a65726fa2646970667358221220bf0d3a89d88e1a897863c56c2a3490dabba18d54e2e001868c472e70685cec4d64736f6c634300060c0033",
    "sourcePath": "/home/devdavi/www/spiry/cyberswap/contracts/Cyberswap.sol",
    "compiler": {
        "name": "solc",
        "version": "0.6.12+commit.27d51765"
    },
    "functionHashes": {
        "BASE_SUPPLY()": "baf13a0a",
        "FEE_DENOMINATOR()": "d73792a9",
        "REFERRAL_SHARE()": "b21b5a21",
        "allowance(address,address)": "dd62ed3e",
        "approve(address,uint256)": "095ea7b3",
        "balanceOf(address)": "70a08231",
        "decayPeriod()": "48d67e1b",
        "decimals()": "313ce567",
        "decreaseAllowance(address,uint256)": "a457c2d7",
        "deposit(uint256[],uint256[])": "f223885a",
        "devAddress()": "3ad10ef6",
        "factory()": "c45a0155",
        "fee()": "ddca3f43",
        "getBalanceForAddition(address)": "d7d3aab5",
        "getBalanceForRemoval(address)": "e7ff42c9",
        "getReturn(address,address,uint256)": "1e1401f8",
        "getTokens()": "aa6ca808",
        "increaseAllowance(address,uint256)": "39509351",
        "isToken(address)": "19f37361",
        "name()": "06fdde03",
        "owner()": "8da5cb5b",
        "renounceOwnership()": "715018a6",
        "rescueFunds(address,uint256)": "78e3214f",
        "swap(address,address,uint256,uint256,address)": "d5bcb9b5",
        "symbol()": "95d89b41",
        "tokens(uint256)": "4f64b2be",
        "totalSupply()": "18160ddd",
        "transfer(address,uint256)": "a9059cbb",
        "transferFrom(address,address,uint256)": "23b872dd",
        "transferOwnership(address)": "f2fde38b",
        "virtualBalancesForAddition(address)": "6edc2c09",
        "virtualBalancesForRemoval(address)": "5ed9156d",
        "volumes(address)": "b1ec4c40",
        "withdraw(uint256,uint256[])": "5915d806"
    },
    "gasEstimates": {
        "creation": {
            "codeDepositCost": "2522000",
            "executionCost": "infinite",
            "totalCost": "infinite"
        },
        "external": {
            "BASE_SUPPLY()": "309",
            "FEE_DENOMINATOR()": "287",
            "REFERRAL_SHARE()": "287",
            "allowance(address,address)": "1294",
            "approve(address,uint256)": "infinite",
            "balanceOf(address)": "1243",
            "decayPeriod()": "266",
            "decimals()": "1103",
            "decreaseAllowance(address,uint256)": "infinite",
            "deposit(uint256[],uint256[])": "infinite",
            "devAddress()": "1083",
            "factory()": "1082",
            "fee()": "infinite",
            "getBalanceForAddition(address)": "infinite",
            "getBalanceForRemoval(address)": "infinite",
            "getReturn(address,address,uint256)": "infinite",
            "getTokens()": "infinite",
            "increaseAllowance(address,uint256)": "infinite",
            "isToken(address)": "1249",
            "name()": "infinite",
            "owner()": "1083",
            "renounceOwnership()": "24312",
            "rescueFunds(address,uint256)": "infinite",
            "swap(address,address,uint256,uint256,address)": "infinite",
            "symbol()": "infinite",
            "tokens(uint256)": "2060",
            "totalSupply()": "1089",
            "transfer(address,uint256)": "infinite",
            "transferFrom(address,address,uint256)": "infinite",
            "transferOwnership(address)": "infinite",
            "virtualBalancesForAddition(address)": "1286",
            "virtualBalancesForRemoval(address)": "1264",
            "volumes(address)": "1301",
            "withdraw(uint256,uint256[])": "infinite"
        },
        "internal": {
            "_getReturn(contract IERC20,contract IERC20,uint256,uint256,uint256)": "infinite"
        }
    }
}