{
    "contractName": "CyberFactory",
    "abi": [
        {
            "anonymous": false,
            "inputs": [
                {
                    "indexed": true,
                    "internalType": "address",
                    "name": "cyberswap",
                    "type": "address"
                },
                {
                    "indexed": true,
                    "internalType": "address",
                    "name": "token1",
                    "type": "address"
                },
                {
                    "indexed": true,
                    "internalType": "address",
                    "name": "token2",
                    "type": "address"
                }
            ],
            "name": "Deployed",
            "type": "event"
        },
        {
            "anonymous": false,
            "inputs": [
                {
                    "indexed": true,
                    "internalType": "address",
                    "name": "previousOwner",
                    "type": "address"
                },
                {
                    "indexed": true,
                    "internalType": "address",
                    "name": "newOwner",
                    "type": "address"
                }
            ],
            "name": "OwnershipTransferred",
            "type": "event"
        },
        {
            "inputs": [],
            "name": "MAX_FEE",
            "outputs": [
                {
                    "internalType": "uint256",
                    "name": "",
                    "type": "uint256"
                }
            ],
            "stateMutability": "view",
            "type": "function"
        },
        {
            "inputs": [
                {
                    "internalType": "uint256",
                    "name": "",
                    "type": "uint256"
                }
            ],
            "name": "allPools",
            "outputs": [
                {
                    "internalType": "contract Cyberswap",
                    "name": "",
                    "type": "address"
                }
            ],
            "stateMutability": "view",
            "type": "function"
        },
        {
            "inputs": [
                {
                    "internalType": "contract IERC20",
                    "name": "tokenA",
                    "type": "address"
                },
                {
                    "internalType": "contract IERC20",
                    "name": "tokenB",
                    "type": "address"
                },
                {
                    "internalType": "address",
                    "name": "devAddr",
                    "type": "address"
                }
            ],
            "name": "deploy",
            "outputs": [
                {
                    "internalType": "contract Cyberswap",
                    "name": "pool",
                    "type": "address"
                }
            ],
            "stateMutability": "nonpayable",
            "type": "function"
        },
        {
            "inputs": [],
            "name": "fee",
            "outputs": [
                {
                    "internalType": "uint256",
                    "name": "",
                    "type": "uint256"
                }
            ],
            "stateMutability": "view",
            "type": "function"
        },
        {
            "inputs": [],
            "name": "getAllPools",
            "outputs": [
                {
                    "internalType": "contract Cyberswap[]",
                    "name": "",
                    "type": "address[]"
                }
            ],
            "stateMutability": "view",
            "type": "function"
        },
        {
            "inputs": [
                {
                    "internalType": "contract Cyberswap",
                    "name": "",
                    "type": "address"
                }
            ],
            "name": "isPool",
            "outputs": [
                {
                    "internalType": "bool",
                    "name": "",
                    "type": "bool"
                }
            ],
            "stateMutability": "view",
            "type": "function"
        },
        {
            "inputs": [],
            "name": "owner",
            "outputs": [
                {
                    "internalType": "address",
                    "name": "",
                    "type": "address"
                }
            ],
            "stateMutability": "view",
            "type": "function"
        },
        {
            "inputs": [
                {
                    "internalType": "contract IERC20",
                    "name": "",
                    "type": "address"
                },
                {
                    "internalType": "contract IERC20",
                    "name": "",
                    "type": "address"
                }
            ],
            "name": "pools",
            "outputs": [
                {
                    "internalType": "contract Cyberswap",
                    "name": "",
                    "type": "address"
                }
            ],
            "stateMutability": "view",
            "type": "function"
        },
        {
            "inputs": [],
            "name": "renounceOwnership",
            "outputs": [],
            "stateMutability": "nonpayable",
            "type": "function"
        },
        {
            "inputs": [
                {
                    "internalType": "uint256",
                    "name": "newFee",
                    "type": "uint256"
                }
            ],
            "name": "setFee",
            "outputs": [],
            "stateMutability": "nonpayable",
            "type": "function"
        },
        {
            "inputs": [
                {
                    "internalType": "contract IERC20",
                    "name": "tokenA",
                    "type": "address"
                },
                {
                    "internalType": "contract IERC20",
                    "name": "tokenB",
                    "type": "address"
                }
            ],
            "name": "sortTokens",
            "outputs": [
                {
                    "internalType": "contract IERC20",
                    "name": "",
                    "type": "address"
                },
                {
                    "internalType": "contract IERC20",
                    "name": "",
                    "type": "address"
                }
            ],
            "stateMutability": "pure",
            "type": "function"
        },
        {
            "inputs": [
                {
                    "internalType": "address",
                    "name": "newOwner",
                    "type": "address"
                }
            ],
            "name": "transferOwnership",
            "outputs": [],
            "stateMutability": "nonpayable",
            "type": "function"
        }
    ],
    "bytecode": "608060405234801561001057600080fd5b50600061001b61006a565b600080546001600160a01b0319166001600160a01b0383169081178255604051929350917f8be0079c531659141344cd1fd0a4f28419497f9722a3daafe3b4186f6b6457e0908290a35061006e565b3390565b614abf8061007d6000396000f3fe60806040523480156200001157600080fd5b5060043610620000c45760003560e01c8063901754d7116200007b578063901754d714620001d8578063bc063e1a1462000209578063d88ff1f41462000225578063d9181cd31462000281578063ddca3f4314620002bc578063f2fde38b14620002c657620000c4565b806341d1de9714620000c9578063544caa5614620001055780635b16ebb7146200016557806369fe0e2d14620001a2578063715018a614620001c45780638da5cb5b14620001ce575b600080fd5b620000e960048036036020811015620000e157600080fd5b5035620002ef565b604080516001600160a01b039092168252519081900360200190f35b62000136600480360360408110156200011d57600080fd5b506001600160a01b038135811691602001351662000317565b60405180836001600160a01b03168152602001826001600160a01b031681526020019250505060405180910390f35b6200018e600480360360208110156200017d57600080fd5b50356001600160a01b03166200034d565b604080519115158252519081900360200190f35b620001c260048036036020811015620001ba57600080fd5b503562000362565b005b620001c26200043d565b620000e962000500565b620000e960048036036040811015620001f057600080fd5b506001600160a01b03813581169160200135166200050f565b6200021362000535565b60408051918252519081900360200190f35b6200022f62000540565b60408051602080825283518183015283519192839290830191858101910280838360005b838110156200026d57818101518382015260200162000253565b505050509050019250505060405180910390f35b620000e9600480360360608110156200029957600080fd5b506001600160a01b038135811691602081013582169160409091013516620005a4565b6200021362000ba6565b620001c260048036036020811015620002de57600080fd5b50356001600160a01b031662000bac565b60028181548110620002fd57fe5b6000918252602090912001546001600160a01b0316905081565b600080826001600160a01b0316846001600160a01b031610156200034057508290508162000346565b50819050825b9250929050565b60036020526000908152604090205460ff1681565b6200036c62000cc7565b6001600160a01b03166200037f62000500565b6001600160a01b031614620003db576040805162461bcd60e51b815260206004820181905260248201527f4f776e61626c653a2063616c6c6572206973206e6f7420746865206f776e6572604482015290519081900360640190fd5b660aa87bee53800081111562000438576040805162461bcd60e51b815260206004820152601e60248201527f466163746f72793a206665652073686f756c64206265203c3d20302e33250000604482015290519081900360640190fd5b600155565b6200044762000cc7565b6001600160a01b03166200045a62000500565b6001600160a01b031614620004b6576040805162461bcd60e51b815260206004820181905260248201527f4f776e61626c653a2063616c6c6572206973206e6f7420746865206f776e6572604482015290519081900360640190fd5b600080546040516001600160a01b03909116907f8be0079c531659141344cd1fd0a4f28419497f9722a3daafe3b4186f6b6457e0908390a3600080546001600160a01b0319169055565b6000546001600160a01b031690565b60046020908152600092835260408084209091529082529020546001600160a01b031681565b660aa87bee53800081565b606060028054806020026020016040519081016040528092919081815260200182805480156200059a57602002820191906000526020600020905b81546001600160a01b031681526001909101906020018083116200057b575b5050505050905090565b6000826001600160a01b0316846001600160a01b031614156200060e576040805162461bcd60e51b815260206004820181905260248201527f466163746f72793a206e6f7420737570706f72742073616d6520746f6b656e73604482015290519081900360640190fd5b6001600160a01b0384811660009081526004602090815260408083208785168452909152902054161562000689576040805162461bcd60e51b815260206004820152601c60248201527f466163746f72793a20706f6f6c20616c72656164792065786973747300000000604482015290519081900360640190fd5b60008062000698868662000317565b6040805160028082526060808301845294965092945091906020830190803683370190505090508281600081518110620006ce57fe5b60200260200101906001600160a01b031690816001600160a01b0316815250508181600181518110620006fd57fe5b6001600160a01b0392831660209182029290920101526060906200072390851662000ccb565b905060606200073b846001600160a01b031662000ccb565b905082828260405160200180806d086f2c4cae4e6eec2e040ac6240560931b815250600e0183805190602001908083835b602083106200078d5780518252601f1990920191602091820191016200076c565b6001836020036101000a03801982511681845116808217855250505050505090500180602d60f81b81525060010182805190602001908083835b60208310620007e85780518252601f199092019160209182019101620007c7565b6001836020036101000a03801982511681845116808217855250505050505090500180602960f81b81525060010192505050604051602081830303815290604052838360405160200180806843594245522d56312d60b81b81525060090183805190602001908083835b60208310620008735780518252601f19909201916020918201910162000852565b6001836020036101000a03801982511681845116808217855250505050505090500180602d60f81b81525060010182805190602001908083835b60208310620008ce5780518252601f199092019160209182019101620008ad565b6001836020036101000a0380198251168184511680821785525050505050509050019250505060405160208183030381529060405289604051620009129062001302565b6001600160a01b0382166060820152608080825285519082015284518190602080830191604084019160a08501918a8201910280838360005b83811015620009655781810151838201526020016200094b565b50505050905001848103835287818151815260200191508051906020019080838360005b83811015620009a357818101518382015260200162000989565b50505050905090810190601f168015620009d15780820380516001836020036101000a031916815260200191505b50848103825286518152865160209182019188019080838360005b8381101562000a06578181015183820152602001620009ec565b50505050905090810190601f16801562000a345780820380516001836020036101000a031916815260200191505b50975050505050505050604051809103906000f08015801562000a5b573d6000803e3d6000fd5b509550856001600160a01b031663f2fde38b62000a7762000500565b6040518263ffffffff1660e01b815260040180826001600160a01b03168152602001915050600060405180830381600087803b15801562000ab757600080fd5b505af115801562000acc573d6000803e3d6000fd5b505050506001600160a01b0385811660008181526004602081815260408084208a87168086529083528185208054978e166001600160a01b03199889168117909155938352818520868652835281852080548816851790556002805460018181019092557f405787fa12a823e0f2b7631cc41b3ba8828b3321ca811111fa75cd3aa3bb5ace01805490981685179097558385526003909252808420805460ff1916909617909555935190917fc95935a66d15e0da5e412aca0ad27ae891d20b2fb91cf3994b6a3bf2b817808291a450505050509392505050565b60015481565b62000bb662000cc7565b6001600160a01b031662000bc962000500565b6001600160a01b03161462000c25576040805162461bcd60e51b815260206004820181905260248201527f4f776e61626c653a2063616c6c6572206973206e6f7420746865206f776e6572604482015290519081900360640190fd5b6001600160a01b03811662000c6c5760405162461bcd60e51b815260040180806020018281038252602681526020018062004a646026913960400191505060405180910390fd5b600080546040516001600160a01b03808516939216917f8be0079c531659141344cd1fd0a4f28419497f9722a3daafe3b4186f6b6457e091a3600080546001600160a01b0319166001600160a01b0392909216919091179055565b3390565b606062000cd88262001137565b1562000cff575060408051808201909152600381526208aa8960eb1b602082015262001132565b60408051600481526024810182526020810180516001600160e01b03166395d89b4160e01b178152915181516000936060936001600160a01b03881693614e2093919290918291908083835b6020831062000d6c5780518252601f19909201916020918201910162000d4b565b6001836020036101000a0380198251168184511680821785525050505050509050019150506000604051808303818686fa925050503d806000811462000dcf576040519150601f19603f3d011682016040523d82523d6000602084013e62000dd4565b606091505b50915091508162000eb35760408051600481526024810182526020810180516001600160e01b0316631eedf1af60e31b178152915181516001600160a01b03881693614e209392918291908083835b6020831062000e445780518252601f19909201916020918201910162000e23565b6001836020036101000a0380198251168184511680821785525050505050509050019150506000604051808303818686fa925050503d806000811462000ea7576040519150601f19603f3d011682016040523d82523d6000602084013e62000eac565b606091505b5090925090505b81801562000ec357506060815110155b1562000fef5760008082806020019051604081101562000ee257600080fd5b50805160209182015190935091508214801562000eff5750600081115b801562000f0e57506101008111155b1562000fec5782806020019051602081101562000f2a57600080fd5b810190808051604051939291908464010000000082111562000f4b57600080fd5b90830190602082018581111562000f6157600080fd5b825164010000000081118282018810171562000f7c57600080fd5b82525081516020918201929091019080838360005b8381101562000fab57818101518382015260200162000f91565b50505050905090810190601f16801562000fd95780820380516001836020036101000a031916815260200191505b5060405250505094505050505062001132565b50505b81801562000ffe575080516020145b15620011225760005b815181108015620010375750602060f81b8282815181106200102557fe5b01602001516001600160f81b03191610155b8015620010635750607e60f81b8282815181106200105157fe5b01602001516001600160f81b03191611155b15620010725760010162001007565b8015620011205760608167ffffffffffffffff811180156200109357600080fd5b506040519080825280601f01601f191660200182016040528015620010bf576020820181803683370190505b50905060005b828110156200111357838181518110620010db57fe5b602001015160f81c60f81b828281518110620010f357fe5b60200101906001600160f81b031916908160001a905350600101620010c5565b5093506200113292505050565b505b6200112d8462001144565b925050505b919050565b6001600160a01b03161590565b60606200117c8260405160200180826001600160a01b031660601b815260140191505060405160208183030381529060405262001182565b92915050565b606080825160020260020167ffffffffffffffff81118015620011a457600080fd5b506040519080825280601f01601f191660200182016040528015620011d0576020820181803683370190505b509050600360fc1b81600081518110620011e657fe5b60200101906001600160f81b031916908160001a905350600f60fb1b816001815181106200121057fe5b60200101906001600160f81b031916908160001a905350600260005b8451811015620012f957600060048683815181106200124757fe5b602001015160f81c60f81b60f81c60ff16901c60ff16905060008683815181106200126e57fe5b60209101015160f81c600f169050600a8204602702826030010160f81b8585806001019650815181106200129e57fe5b60200101906001600160f81b031916908160001a905350600a8104602702816030010160f81b858580600101965081518110620012d757fe5b60200101906001600160f81b031916908160001a90535050506001016200122c565b50909392505050565b61375380620013118339019056fe60806040523480156200001157600080fd5b506040516200375338038062003753833981810160405260808110156200003757600080fd5b81019080805160405193929190846401000000008211156200005857600080fd5b9083019060208201858111156200006e57600080fd5b82518660208202830111640100000000821117156200008c57600080fd5b82525081516020918201928201910280838360005b83811015620000bb578181015183820152602001620000a1565b5050505090500160405260200180516040519392919084640100000000821115620000e557600080fd5b908301906020820185811115620000fb57600080fd5b82516401000000008111828201881017156200011657600080fd5b82525081516020918201929091019080838360005b83811015620001455781810151838201526020016200012b565b50505050905090810190601f168015620001735780820380516001836020036101000a031916815260200191505b50604052602001805160405193929190846401000000008211156200019757600080fd5b908301906020820185811115620001ad57600080fd5b8251640100000000811182820188101715620001c857600080fd5b82525081516020918201929091019080838360005b83811015620001f7578181015183820152602001620001dd565b50505050905090810190601f168015620002255780820380516001836020036101000a031916815260200191505b50604052602090810151855190935085925084916200024a9160039185019062000508565b5080516200026090600490602084019062000508565b50506005805460ff1916601217905550600160065560006200028162000504565b600780546001600160a01b0319166001600160a01b038316908117909155604051919250906000907f8be0079c531659141344cd1fd0a4f28419497f9722a3daafe3b4186f6b6457e0908290a350600083511162000326576040805162461bcd60e51b815260206004820152601860248201527f4379626572737761703a206e616d6520697320656d7074790000000000000000604482015290519081900360640190fd5b60008251116200037d576040805162461bcd60e51b815260206004820152601a60248201527f4379626572737761703a2073796d626f6c20697320656d707479000000000000604482015290519081900360640190fd5b8351600214620003d4576040805162461bcd60e51b815260206004820181905260248201527f4379626572737761703a206f6e6c79203220746f6b656e7320616c6c6f776564604482015290519081900360640190fd5b600880546001600160a01b0383166001600160a01b031991821617909155600980549091163317905583516200041290600a9060208701906200058d565b5060005b8451811015620004f957600b60008683815181106200043157fe5b6020908102919091018101516001600160a01b031682528101919091526040016000205460ff1615620004ab576040805162461bcd60e51b815260206004820152601b60248201527f4379626572737761703a206475706c696361746520746f6b656e730000000000604482015290519081900360640190fd5b6001600b6000878481518110620004be57fe5b6020908102919091018101516001600160a01b03168252810191909152604001600020805460ff191691151591909117905560010162000416565b50505050506200062b565b3390565b828054600181600116156101000203166002900490600052602060002090601f016020900481019282601f106200054b57805160ff19168380011785556200057b565b828001600101855582156200057b579182015b828111156200057b5782518255916020019190600101906200055e565b5062000589929150620005f3565b5090565b828054828255906000526020600020908101928215620005e5579160200282015b82811115620005e557825182546001600160a01b0319166001600160a01b03909116178255602090920191600190910190620005ae565b50620005899291506200060a565b5b80821115620005895760008155600101620005f4565b5b80821115620005895780546001600160a01b03191681556001016200060b565b613118806200063b6000396000f3fe6080604052600436106101f95760003560e01c80638da5cb5b1161010d578063c45a0155116100a0578063dd62ed3e1161006f578063dd62ed3e14610880578063ddca3f43146108bb578063e7ff42c9146108d0578063f223885a14610903578063f2fde38b146109c5576101f9565b8063c45a0155146107df578063d5bcb9b5146107f4578063d73792a914610838578063d7d3aab51461084d576101f9565b8063aa6ca808116100dc578063aa6ca808146106ee578063b1ec4c4014610753578063b21b5a21146107b5578063baf13a0a146107ca576101f9565b80638da5cb5b1461065257806395d89b4114610667578063a457c2d71461067c578063a9059cbb146106b5576101f9565b80633ad10ef6116101905780635ed9156d1161015f5780635ed9156d146105425780636edc2c091461059e57806370a08231146105d1578063715018a61461060457806378e3214f14610619576101f9565b80633ad10ef61461041957806348d67e1b1461044a5780634f64b2be1461045f5780635915d80614610489576101f9565b80631e1401f8116101cc5780631e1401f81461032f57806323b872dd14610372578063313ce567146103b557806339509351146103e0576101f9565b806306fdde03146101fe578063095ea7b31461028857806318160ddd146102d557806319f37361146102fc575b600080fd5b34801561020a57600080fd5b506102136109f8565b6040805160208082528351818301528351919283929083019185019080838360005b8381101561024d578181015183820152602001610235565b50505050905090810190601f16801561027a5780820380516001836020036101000a031916815260200191505b509250505060405180910390f35b34801561029457600080fd5b506102c1600480360360408110156102ab57600080fd5b506001600160a01b038135169060200135610a8e565b604080519115158252519081900360200190f35b3480156102e157600080fd5b506102ea610aac565b60408051918252519081900360200190f35b34801561030857600080fd5b506102c16004803603602081101561031f57600080fd5b50356001600160a01b0316610ab2565b34801561033b57600080fd5b506102ea6004803603606081101561035257600080fd5b506001600160a01b03813581169160208101359091169060400135610ac7565b34801561037e57600080fd5b506102c16004803603606081101561039557600080fd5b506001600160a01b03813581169160208101359091169060400135610af0565b3480156103c157600080fd5b506103ca610b77565b6040805160ff9092168252519081900360200190f35b3480156103ec57600080fd5b506102c16004803603604081101561040357600080fd5b506001600160a01b038135169060200135610b80565b34801561042557600080fd5b5061042e610bce565b604080516001600160a01b039092168252519081900360200190f35b34801561045657600080fd5b506102ea610bdd565b34801561046b57600080fd5b5061042e6004803603602081101561048257600080fd5b5035610be3565b34801561049557600080fd5b50610540600480360360408110156104ac57600080fd5b813591908101906040810160208201356401000000008111156104ce57600080fd5b8201836020820111156104e057600080fd5b8035906020019184602083028401116401000000008311171561050257600080fd5b919080806020026020016040519081016040528093929190818152602001838360200280828437600092019190915250929550610c0a945050505050565b005b34801561054e57600080fd5b506105756004803603602081101561056557600080fd5b50356001600160a01b0316610df1565b604080516001600160d81b03909316835264ffffffffff90911660208301528051918290030190f35b3480156105aa57600080fd5b50610575600480360360208110156105c157600080fd5b50356001600160a01b0316610e1c565b3480156105dd57600080fd5b506102ea600480360360208110156105f457600080fd5b50356001600160a01b0316610e47565b34801561061057600080fd5b50610540610e66565b34801561062557600080fd5b506105406004803603604081101561063c57600080fd5b506001600160a01b038135169060200135610f24565b34801561065e57600080fd5b5061042e611184565b34801561067357600080fd5b50610213611193565b34801561068857600080fd5b506102c16004803603604081101561069f57600080fd5b506001600160a01b0381351690602001356111f4565b3480156106c157600080fd5b506102c1600480360360408110156106d857600080fd5b506001600160a01b03813516906020013561125c565b3480156106fa57600080fd5b50610703611270565b60408051602080825283518183015283519192839290830191858101910280838360005b8381101561073f578181015183820152602001610727565b505050509050019250505060405180910390f35b34801561075f57600080fd5b506107866004803603602081101561077657600080fd5b50356001600160a01b03166112d1565b60405180836001600160801b03168152602001826001600160801b031681526020019250505060405180910390f35b3480156107c157600080fd5b506102ea6112f7565b3480156107d657600080fd5b506102ea6112fc565b3480156107eb57600080fd5b5061042e611302565b6102ea600480360360a081101561080a57600080fd5b506001600160a01b038135811691602081013582169160408201359160608101359160809091013516611311565b34801561084457600080fd5b506102ea611852565b34801561085957600080fd5b506102ea6004803603602081101561087057600080fd5b50356001600160a01b031661185e565b34801561088c57600080fd5b506102ea600480360360408110156108a357600080fd5b506001600160a01b03813581169160200135166118ce565b3480156108c757600080fd5b506102ea6118f9565b3480156108dc57600080fd5b506102ea600480360360208110156108f357600080fd5b50356001600160a01b031661196f565b6102ea6004803603604081101561091957600080fd5b81019060208101813564010000000081111561093457600080fd5b82018360208201111561094657600080fd5b8035906020019184602083028401116401000000008311171561096857600080fd5b91939092909160208101903564010000000081111561098657600080fd5b82018360208201111561099857600080fd5b803590602001918460208302840111640100000000831117156109ba57600080fd5b5090925090506119df565b3480156109d157600080fd5b50610540600480360360208110156109e857600080fd5b50356001600160a01b031661206d565b60038054604080516020601f6002600019610100600188161502019095169490940493840181900481028201810190925282815260609390929091830182828015610a845780601f10610a5957610100808354040283529160200191610a84565b820191906000526020600020905b815481529060010190602001808311610a6757829003601f168201915b5050505050905090565b6000610aa2610a9b612182565b8484612186565b5060015b92915050565b60025490565b600b6020526000908152604090205460ff1681565b6000610ae6848484610ad88861185e565b610ae18861196f565b612272565b90505b9392505050565b6000610afd848484612331565b610b6d84610b09612182565b610b6885604051806060016040528060288152602001613002602891396001600160a01b038a16600090815260016020526040812090610b47612182565b6001600160a01b03168152602081019190915260400160002054919061248c565b612186565b5060019392505050565b60055460ff1690565b6000610aa2610b8d612182565b84610b688560016000610b9e612182565b6001600160a01b03908116825260208083019390935260409182016000908120918c168152925290205490612523565b6008546001600160a01b031681565b61012c90565b600a8181548110610bf057fe5b6000918252602090912001546001600160a01b0316905081565b60026006541415610c50576040805162461bcd60e51b815260206004820152601f6024820152600080516020612f31833981519152604482015290519081900360640190fd5b60026006556000610c5f610aac565b9050610c6b338461257d565b60005b600a54811015610db0576000600a8281548110610c8757fe5b60009182526020822001546001600160a01b03169150610ca78230612679565b90506000610cbf85610cb9848a61271a565b90612773565b9050610cd56001600160a01b03841633836127da565b855184101580610cf85750858481518110610cec57fe5b60200260200101518110155b610d49576040805162461bcd60e51b815260206004820152601f60248201527f4379626572737761703a20726573756c74206973206e6f7420656e6f75676800604482015290519081900360640190fd5b610d7782610d57878a612843565b6001600160a01b0386166000908152600d602052604090209190886128a0565b610da582610d85878a612843565b6001600160a01b0386166000908152600e602052604090209190886128a0565b505050600101610c6e565b5060408051848152905133917f7084f5476618d8e60b11ef0d7d3f06914655adb8793e28ff7f018d4c76d505d5919081900360200190a25050600160065550565b600e602052600090815260409020546001600160d81b03811690600160d81b900464ffffffffff1682565b600d602052600090815260409020546001600160d81b03811690600160d81b900464ffffffffff1682565b6001600160a01b0381166000908152602081905260409020545b919050565b610e6e612182565b6001600160a01b0316610e7f611184565b6001600160a01b031614610eda576040805162461bcd60e51b815260206004820181905260248201527f4f776e61626c653a2063616c6c6572206973206e6f7420746865206f776e6572604482015290519081900360640190fd5b6007546040516000916001600160a01b0316907f8be0079c531659141344cd1fd0a4f28419497f9722a3daafe3b4186f6b6457e0908390a3600780546001600160a01b0319169055565b60026006541415610f6a576040805162461bcd60e51b815260206004820152601f6024820152600080516020612f31833981519152604482015290519081900360640190fd5b6002600655610f77612182565b6001600160a01b0316610f88611184565b6001600160a01b031614610fe3576040805162461bcd60e51b815260206004820181905260248201527f4f776e61626c653a2063616c6c6572206973206e6f7420746865206f776e6572604482015290519081900360640190fd5b600a5460609067ffffffffffffffff81118015610fff57600080fd5b50604051908082528060200260200182016040528015611029578160200160208202803683370190505b50905060005b81518110156110835761106430600a838154811061104957fe5b6000918252602090912001546001600160a01b031690612679565b82828151811061107057fe5b602090810291909101015260010161102f565b506110986001600160a01b03841633846127da565b60005b815181101561111f578181815181106110b057fe5b60200260200101516110c930600a848154811061104957fe5b1015611117576040805162461bcd60e51b815260206004820152601860248201527710de58995c9cddd85c0e881858d8d95cdcc819195b9a595960421b604482015290519081900360640190fd5b60010161109b565b506103e861112c30610e47565b101561117a576040805162461bcd60e51b815260206004820152601860248201527710de58995c9cddd85c0e881858d8d95cdcc819195b9a595960421b604482015290519081900360640190fd5b5050600160065550565b6007546001600160a01b031690565b60048054604080516020601f6002600019610100600188161502019095169490940493840181900481028201810190925282815260609390929091830182828015610a845780601f10610a5957610100808354040283529160200191610a84565b6000610aa2611201612182565b84610b68856040518060600160405280602581526020016130be602591396001600061122b612182565b6001600160a01b03908116825260208083019390935260409182016000908120918d1681529252902054919061248c565b6000610aa2611269612182565b8484612331565b6060600a805480602002602001604051908101604052809291908181526020018280548015610a8457602002820191906000526020600020905b81546001600160a01b031681526001909101906020018083116112aa575050505050905090565b600c602052600090815260409020546001600160801b0380821691600160801b90041682565b601481565b6103e881565b6009546001600160a01b031681565b600060026006541415611359576040805162461bcd60e51b815260206004820152601f6024820152600080516020612f31833981519152604482015290519081900360640190fd5b60026006556113706001600160a01b0387166128fc565b61137b57600061137d565b835b34146113d0576040805162461bcd60e51b815260206004820152601c60248201527f4379626572737761703a2077726f6e672076616c756520757361676500000000604482015290519081900360640190fd5b6113d8612ef3565b604051806040016040528061141e6113f88a6001600160a01b03166128fc565b611403576000611405565b345b6114186001600160a01b038c1630612679565b90612843565b81526020016114366001600160a01b03891630612679565b905280516001600160a01b0389166000908152600d602090815260408083208151808301909252546001600160d81b0381168252600160d81b900464ffffffffff169181019190915292935091611498916114919190612909565b835161296a565b6020838101516001600160a01b038a166000908152600e835260408082208151808301909252546001600160d81b0381168252600160d81b900464ffffffffff16938101939093529293506114fa916114f091612909565b8460200151612981565b905061150f6001600160a01b038a1688612990565b825160009061152b906114186001600160a01b038d1630612679565b905061153a8a8a838686612272565b945060008511801561154c5750868510155b61159d576040805162461bcd60e51b815260206004820152601f60248201527f4379626572737761703a2072657475726e206973206e6f7420656e6f75676800604482015290519081900360640190fd5b6115b16001600160a01b038a1633876127da565b835183146115e4576115e46115c68483612523565b6001600160a01b038c166000908152600d6020526040902090612a57565b8360200151821461161a5761161a6115fc8387612843565b6001600160a01b038b166000908152600e6020526040902090612a57565b83516001600160a01b038b166000908152600e6020526040902061163d91612a83565b6020808501516001600160a01b038b166000908152600d909252604090912061166591612a83565b60006001600160a01b0387161561167d57508561169c565b6008546001600160a01b03161561169c57506008546001600160a01b03165b6001600160a01b038116156117575784516ec097ce7bc90715b34b9f1000000000906116d690610cb96116cf8287612523565b849061271a565b60208701519091506116ef90610cb96116cf828b612843565b90506ec097ce7bc90715b34b9f10000000008111156117555760006117416014610cb9670de0b6b3a7640000610cb9611726610aac565b61173b670de0b6b3a76400006114188a612abe565b9061271a565b90508015611753576117538982612b18565b505b505b896001600160a01b03168b6001600160a01b0316336001600160a01b03167f86c49b5d8577da08444947f1427d23ef191cfabf2c0788f93324d79e926a9302858a8a600001518b602001516117aa610aac565b60408051958652602086019490945284840192909252606084015260808301526001600160a01b03871660a0830152519081900360c00190a4506001600160a01b039099166000908152600c602052604090208054600160801b6001600160801b03808316909c018c166fffffffffffffffffffffffffffffffff19909216919091178181048c1687018c169091029a16999099179098555050600160065595945050505050565b670de0b6b3a764000081565b6000806118746001600160a01b03841630612679565b6001600160a01b0384166000908152600d60209081526040918290208251808401909352546001600160d81b0381168352600160d81b900464ffffffffff1690820152909150610ae9906118c89083612909565b8261296a565b6001600160a01b03918216600090815260016020908152604080832093909416825291909152205490565b6009546040805163ddca3f4360e01b815290516000926001600160a01b03169163ddca3f43916004808301926020929190829003018186803b15801561193e57600080fd5b505afa158015611952573d6000803e3d6000fd5b505050506040513d602081101561196857600080fd5b5051905090565b6000806119856001600160a01b03841630612679565b6001600160a01b0384166000908152600e60209081526040918290208251808401909352546001600160d81b0381168352600160d81b900464ffffffffff1690820152909150610ae9906119d99083612909565b82612981565b600060026006541415611a27576040805162461bcd60e51b815260206004820152601f6024820152600080516020612f31833981519152604482015290519081900360640190fd5b6002600655600a80546040805160208084028201810190925282815260609390929091830182828015611a8357602002820191906000526020600020905b81546001600160a01b03168152600190910190602001808311611a65575b5050505050905080518686905014611ae2576040805162461bcd60e51b815260206004820152601f60248201527f4379626572737761703a2077726f6e6720616d6f756e7473206c656e67746800604482015290519081900360640190fd5b611b0881600081518110611af257fe5b60200260200101516001600160a01b03166128fc565b611b4157611b1c81600181518110611af257fe5b611b27576000611b3c565b85856001818110611b3457fe5b905060200201355b611b56565b85856000818110611b4e57fe5b905060200201355b3414611ba9576040805162461bcd60e51b815260206004820152601c60248201527f4379626572737761703a2077726f6e672076616c756520757361676500000000604482015290519081900360640190fd5b60608567ffffffffffffffff81118015611bc257600080fd5b50604051908082528060200260200182016040528015611bec578160200160208202803683370190505b50905060005b8151811015611c6857611c49611c0d848381518110611af257fe5b611c18576000611c1a565b345b61141830868581518110611c2a57fe5b60200260200101516001600160a01b031661267990919063ffffffff16565b828281518110611c5557fe5b6020908102919091010152600101611bf2565b506000611c73610aac565b905080611ccc57611c876103e8606361271a565b9350611c95306103e8612b18565b60005b87811015611cc657611cbc858a8a84818110611cb057fe5b9050602002013561296a565b9450600101611c98565b50611d2d565b600019935060005b87811015611d2b57611d2185611d1c858481518110611cef57fe5b6020026020010151610cb98d8d87818110611d0657fe5b905060200201358761271a90919063ffffffff16565b612981565b9450600101611cd4565b505b8360005b88811015611efc5760008a8a83818110611d4757fe5b9050602002013511611da0576040805162461bcd60e51b815260206004820152601960248201527f4379626572737761703a20616d6f756e74206973207a65726f00000000000000604482015290519081900360640190fd5b60008315611de457611ddf84610cb960018703611dd9878a8881518110611dc357fe5b602002602001015161271a90919063ffffffff16565b90612523565b611df8565b8a8a83818110611df057fe5b905060200201355b9050888883818110611e0657fe5b90506020020135811015611e61576040805162461bcd60e51b815260206004820181905260248201527f4379626572737761703a206d696e416d6f756e74206e6f742072656163686564604482015290519081900360640190fd5b611e9081878481518110611e7157fe5b60200260200101516001600160a01b031661299090919063ffffffff16565b8315611ef3576000611ebf868481518110611ea757fe5b6020026020010151611418308a8781518110611c2a57fe5b9050611eef88611d1c888681518110611ed457fe5b6020026020010151610cb9858a61271a90919063ffffffff16565b9750505b50600101611d31565b508115611fc65760005b88811015611fc457611f81848281518110611f1d57fe5b6020026020010151611f38888661252390919063ffffffff16565b85600e60008a8781518110611f4957fe5b60200260200101516001600160a01b03166001600160a01b031681526020019081526020016000206128a0909392919063ffffffff16565b611fbc848281518110611f9057fe5b6020026020010151611fab888661252390919063ffffffff16565b85600d60008a8781518110611f4957fe5b600101611f06565b505b6000851161201b576040805162461bcd60e51b815260206004820152601f60248201527f4379626572737761703a20726573756c74206973206e6f7420656e6f75676800604482015290519081900360640190fd5b6120253386612b18565b60408051868152905133917f2da466a7b24304f47e87fa2e1e5a81b9831ce54fec19055ce277ca2f39ba42c4919081900360200190a250506001600655509095945050505050565b612075612182565b6001600160a01b0316612086611184565b6001600160a01b0316146120e1576040805162461bcd60e51b815260206004820181905260248201527f4f776e61626c653a2063616c6c6572206973206e6f7420746865206f776e6572604482015290519081900360640190fd5b6001600160a01b0381166121265760405162461bcd60e51b8152600401808060200182810382526026815260200180612f736026913960400191505060405180910390fd5b6007546040516001600160a01b038084169216907f8be0079c531659141344cd1fd0a4f28419497f9722a3daafe3b4186f6b6457e090600090a3600780546001600160a01b0319166001600160a01b0392909216919091179055565b3390565b6001600160a01b0383166121cb5760405162461bcd60e51b81526004018080602001828103825260248152602001806130706024913960400191505060405180910390fd5b6001600160a01b0382166122105760405162461bcd60e51b8152600401808060200182810382526022815260200180612f996022913960400191505060405180910390fd5b6001600160a01b03808416600081815260016020908152604080832094871680845294825291829020859055815185815291517f8c5be1e5ebec7d5bd14f71427d1e84f3dd0314c0f7b2291e5b200ac8c7c3b9259281900390910190a3505050565b6001600160a01b0385166000908152600b602052604081205460ff1680156122b257506001600160a01b0385166000908152600b602052604090205460ff165b80156122d05750846001600160a01b0316866001600160a01b031614155b80156122dc5750600084115b1561232857600061230b612304670de0b6b3a7640000610cb96122fd6118f9565b899061271a565b8690612843565b905061232461231a8583612523565b610cb9838661271a565b9150505b95945050505050565b6001600160a01b0383166123765760405162461bcd60e51b815260040180806020018281038252602581526020018061304b6025913960400191505060405180910390fd5b6001600160a01b0382166123bb5760405162461bcd60e51b8152600401808060200182810382526023815260200180612f0e6023913960400191505060405180910390fd5b6123c683838361283e565b61240381604051806060016040528060268152602001612fbb602691396001600160a01b038616600090815260208190526040902054919061248c565b6001600160a01b0380851660009081526020819052604080822093909355908416815220546124329082612523565b6001600160a01b038084166000818152602081815260409182902094909455805185815290519193928716927fddf252ad1be2c89b69c2b068fc378daa952ba7f163c4a11628f55a4df523b3ef92918290030190a3505050565b6000818484111561251b5760405162461bcd60e51b81526004018080602001828103825283818151815260200191508051906020019080838360005b838110156124e05781810151838201526020016124c8565b50505050905090810190601f16801561250d5780820380516001836020036101000a031916815260200191505b509250505060405180910390fd5b505050900390565b600082820183811015610ae9576040805162461bcd60e51b815260206004820152601b60248201527f536166654d6174683a206164646974696f6e206f766572666c6f770000000000604482015290519081900360640190fd5b6001600160a01b0382166125c25760405162461bcd60e51b815260040180806020018281038252602181526020018061302a6021913960400191505060405180910390fd5b6125ce8260008361283e565b61260b81604051806060016040528060228152602001612f51602291396001600160a01b038516600090815260208190526040902054919061248c565b6001600160a01b0383166000908152602081905260409020556002546126319082612843565b6002556040805182815290516000916001600160a01b038516917fddf252ad1be2c89b69c2b068fc378daa952ba7f163c4a11628f55a4df523b3ef9181900360200190a35050565b6000612684836128fc565b1561269a57506001600160a01b03811631610aa6565b826001600160a01b03166370a08231836040518263ffffffff1660e01b815260040180826001600160a01b0316815260200191505060206040518083038186803b1580156126e757600080fd5b505afa1580156126fb573d6000803e3d6000fd5b505050506040513d602081101561271157600080fd5b50519050610aa6565b60008261272957506000610aa6565b8282028284828161273657fe5b0414610ae95760405162461bcd60e51b8152600401808060200182810382526021815260200180612fe16021913960400191505060405180910390fd5b60008082116127c9576040805162461bcd60e51b815260206004820152601a60248201527f536166654d6174683a206469766973696f6e206279207a65726f000000000000604482015290519081900360640190fd5b8183816127d257fe5b049392505050565b801561283e576127e9836128fc565b1561282a576040516001600160a01b0383169082156108fc029083906000818181858888f19350505050158015612824573d6000803e3d6000fd5b5061283e565b61283e6001600160a01b0384168383612c08565b505050565b60008282111561289a576040805162461bcd60e51b815260206004820152601e60248201527f536166654d6174683a207375627472616374696f6e206f766572666c6f770000604482015290519081900360640190fd5b50900390565b6128f6846128f183610cb96128b6826001612843565b604080518082019091528a546001600160d81b0381168252600160d81b900464ffffffffff166020820152611dd990899061173b908c612909565b612a57565b50505050565b6001600160a01b03161590565b60008061293061012c611d1c866020015164ffffffffff164261284390919063ffffffff16565b9050600061294061012c83612843565b905061232861012c610cb9612955878661271a565b8851611dd9906001600160d81b03168661271a565b60008183101561297a5781610ae9565b5090919050565b600081831061297a5781610ae9565b8015612a535761299f826128fc565b15612a3e57803410156129f9576040805162461bcd60e51b815260206004820152601a60248201527f556e6945524332303a206e6f7420656e6f7567682076616c7565000000000000604482015290519081900360640190fd5b80341115612a3957336108fc612a0f3484612843565b6040518115909202916000818181858888f19350505050158015612a37573d6000803e3d6000fd5b505b612a53565b612a536001600160a01b038316333084612c5a565b5050565b81546001600160d81b0319166001600160d81b039182161716600160d81b4264ffffffffff1602179055565b6040805180820190915282546001600160d81b0381168252600160d81b900464ffffffffff166020820152612a539083906128f19084612909565b60006003821115612b025781600160028204015b81811015612afa57809150600281828681612ae957fe5b040181612af257fe5b049050612ad2565b509050610e61565b8115612b1057506001610e61565b506000610e61565b6001600160a01b038216612b73576040805162461bcd60e51b815260206004820152601f60248201527f45524332303a206d696e7420746f20746865207a65726f206164647265737300604482015290519081900360640190fd5b612b7f6000838361283e565b600254612b8c9082612523565b6002556001600160a01b038216600090815260208190526040902054612bb29082612523565b6001600160a01b0383166000818152602081815260408083209490945583518581529351929391927fddf252ad1be2c89b69c2b068fc378daa952ba7f163c4a11628f55a4df523b3ef9281900390910190a35050565b604080516001600160a01b038416602482015260448082018490528251808303909101815260649091019091526020810180516001600160e01b031663a9059cbb60e01b17905261283e908490612cb0565b604080516001600160a01b0380861660248301528416604482015260648082018490528251808303909101815260849091019091526020810180516001600160e01b03166323b872dd60e01b1790526128f69085905b6060612d05826040518060400160405280602081526020017f5361666545524332303a206c6f772d6c6576656c2063616c6c206661696c6564815250856001600160a01b0316612d619092919063ffffffff16565b80519091501561283e57808060200190516020811015612d2457600080fd5b505161283e5760405162461bcd60e51b815260040180806020018281038252602a815260200180613094602a913960400191505060405180910390fd5b6060610ae6848460008585612d7585612e87565b612dc6576040805162461bcd60e51b815260206004820152601d60248201527f416464726573733a2063616c6c20746f206e6f6e2d636f6e7472616374000000604482015290519081900360640190fd5b60006060866001600160a01b031685876040518082805190602001908083835b60208310612e055780518252601f199092019160209182019101612de6565b6001836020036101000a03801982511681845116808217855250505050505090500191505060006040518083038185875af1925050503d8060008114612e67576040519150601f19603f3d011682016040523d82523d6000602084013e612e6c565b606091505b5091509150612e7c828286612e8d565b979650505050505050565b3b151590565b60608315612e9c575081610ae9565b825115612eac5782518084602001fd5b60405162461bcd60e51b81526020600482018181528451602484015284518593919283926044019190850190808383600083156124e05781810151838201526020016124c8565b60405180604001604052806000815260200160008152509056fe45524332303a207472616e7366657220746f20746865207a65726f20616464726573735265656e7472616e637947756172643a207265656e7472616e742063616c6c0045524332303a206275726e20616d6f756e7420657863656564732062616c616e63654f776e61626c653a206e6577206f776e657220697320746865207a65726f206164647265737345524332303a20617070726f766520746f20746865207a65726f206164647265737345524332303a207472616e7366657220616d6f756e7420657863656564732062616c616e6365536166654d6174683a206d756c7469706c69636174696f6e206f766572666c6f7745524332303a207472616e7366657220616d6f756e74206578636565647320616c6c6f77616e636545524332303a206275726e2066726f6d20746865207a65726f206164647265737345524332303a207472616e736665722066726f6d20746865207a65726f206164647265737345524332303a20617070726f76652066726f6d20746865207a65726f20616464726573735361666545524332303a204552433230206f7065726174696f6e20646964206e6f74207375636365656445524332303a2064656372656173656420616c6c6f77616e63652062656c6f77207a65726fa264697066735822122096d85354428b7dfeeb07f17fec74be061cddf97ce4982f63f02b043d4fcc9a7364736f6c634300060c00334f776e61626c653a206e6577206f776e657220697320746865207a65726f2061646472657373a26469706673582212204d2ed221549e58d77259ed8e7a96165d68a86c6d31ac3c82d7a94185e41f6e8764736f6c634300060c0033",
    "sourcePath": "c:/Users/spiry/Documents/GitHub/mooniswap/contracts/CyberSwap+Factory_flatten.sol",
    "compiler": {
        "name": "solc",
        "version": "0.6.12+commit.27d51765"
    },
    "functionHashes": {
        "MAX_FEE()": "bc063e1a",
        "allPools(uint256)": "41d1de97",
        "deploy(address,address,address)": "d9181cd3",
        "fee()": "ddca3f43",
        "getAllPools()": "d88ff1f4",
        "isPool(address)": "5b16ebb7",
        "owner()": "8da5cb5b",
        "pools(address,address)": "901754d7",
        "renounceOwnership()": "715018a6",
        "setFee(uint256)": "69fe0e2d",
        "sortTokens(address,address)": "544caa56",
        "transferOwnership(address)": "f2fde38b"
    },
    "gasEstimates": {
        "creation": {
            "codeDepositCost": "3827000",
            "executionCost": "26772",
            "totalCost": "3853772"
        },
        "external": {
            "MAX_FEE()": "220",
            "allPools(uint256)": "1971",
            "deploy(address,address,address)": "infinite",
            "fee()": "1086",
            "getAllPools()": "infinite",
            "isPool(address)": "1181",
            "owner()": "1148",
            "pools(address,address)": "1256",
            "renounceOwnership()": "24344",
            "setFee(uint256)": "21212",
            "sortTokens(address,address)": "464",
            "transferOwnership(address)": "infinite"
        }
    }
}