{
    "contractName": "VirtualBalance",
    "abi": [
        {
            "inputs": [],
            "name": "DECAY_PERIOD",
            "outputs": [
                {
                    "internalType": "uint256",
                    "name": "",
                    "type": "uint256"
                }
            ],
            "stateMutability": "view",
            "type": "function"
        }
    ],
    "bytecode": "608c610024600b82828239805160001a607314601757fe5b30600052607381538281f3fe730000000000000000000000000000000000000000301460806040526004361060335760003560e01c80631e9d4904146038575b600080fd5b603e6050565b60408051918252519081900360200190f35b61012c8156fea2646970667358221220fca23e88a2d76bd68f5bd39f75da2a9eff0725f0a24e69f65aa9d8b3407701c564736f6c634300060c0033",
    "sourcePath": "/home/devdavi/www/spiry/cyberswap/contracts/Cyberswap.sol",
    "compiler": {
        "name": "solc",
        "version": "0.6.12+commit.27d51765"
    },
    "functionHashes": {
        "DECAY_PERIOD()": "1e9d4904"
    },
    "gasEstimates": {
        "creation": {
            "codeDepositCost": "28000",
            "executionCost": "106",
            "totalCost": "28106"
        },
        "external": {
            "DECAY_PERIOD()": "160"
        },
        "internal": {
            "current(struct VirtualBalance.Data memory,uint256)": "infinite",
            "scale(struct VirtualBalance.Data storage pointer,uint256,uint256,uint256)": "infinite",
            "set(struct VirtualBalance.Data storage pointer,uint256)": "infinite",
            "update(struct VirtualBalance.Data storage pointer,uint256)": "infinite"
        }
    }
}